:020000040800F2
:10000000789A0020C50100089F290008451D0008B6
:100010009D2900081D080008F544000800000000A4
:100020000000000000000000000000004542000841
:10003000930E0008000000006D39000829430008F5
:10004000DF010008DF010008DF010008DF01000810
:10005000DF010008DF010008DF010008DF01000800
:10006000DF010008DF010008DF010008DF010008F0
:10007000DF010008DF010008DF010008DF010008E0
:10008000DF010008DF010008DF010008DF010008D0
:10009000DF010008DF010008DF010008DF010008C0
:1000A000DF010008DF010008DF010008DF010008B0
:1000B000DF010008DF010008DF010008DF010008A0
:1000C000DF010008DF010008DF010008DF01000890
:1000D000DF010008DF010008DF010008DF01000880
:1000E000DF010008DF010008DF010008DF01000870
:1000F000DF010008DF010008DF010008DF01000860
:10010000DF010008DF010008DF010008DF0100084F
:10011000DF010008DF010008DF010008DF0100083F
:10012000DF010008AD0C0008DF010008DF01000856
:10013000DF010008DF010008DF010008DF0100081F
:10014000DF010008DF010008DF010008DF0100080F
:10015000DF010008DF010008DF010008DF010008FF
:10016000DF010008DF010008DF010008DF010008EF
:10017000DF010008DF010008350A0008DF01000880
:10018000DF010008DF010008DF010008DF010008CF
:10019000DF010008DF010008DF010008DF010008BF
:1001A000DF010008DF010008DF010008DFF810D0E0
:1001B00000F0C2FA00480047D5670008AFF300809E
:1001C000789A00200648804706480047FEE7FEE789
:1001D000FEE7FEE7FEE7FEE7FEE7FEE7FEE7FEE7F7
:1001E00099430008AD01000810B5431A934209D2A3
:1001F0008318881803E010F8011D03F8011D521E32
:10020000F9D210BD40EA01039B0703D009E008C9F9
:10021000121F08C0042AFAD203E011F8013B00F8CB
:10022000013B521EF9D210BDD2B201E000F8012B01
:10023000491EFBD270470022F6E710B513460A4666
:1002400004461946FFF7F0FF204610BD30B50446BE
:100250000020034600E05B1C934203D2E05CCD5CCF
:10026000401BF8D030BD2DE9F04D81EA030404F0C5
:10027000004B21F0004514464FF0000A23F00041E6
:1002800050EA050220D054EA01021DD0C5F30A57F6
:100290000246C5F31303C1F31300C1F30A5640F439
:1002A000801543F48013A7EB0608101BD64608F20E
:1002B000FD3873EB050002D308F1010801E0921844
:1002C0005B41B8F1000F03DA00200146BDE8F08D74
:1002D00000204FF48011064684460EE0171B73EB96
:1002E000050705D3121B63EB050306434CEA010C1B
:1002F00049084FEA300092185B4150EA0107EDD1FE
:1003000052EA030012D082EA040083EA050108439E
:1003100005D0101BAB4106D20122002306E00022CB
:100320004FF0004302E06FF0010253101AEB060099
:100330004CEB085110EB0A0041EB0B01BDE8F04D0E
:1003400000F054B80EB540F2334102910021CDE9DE
:1003500000110A460B4600F058F803B000BD30B556
:100360000B46014600202022012409E021FA02F573
:100370009D4205D303FA02F5491B04FA02F528440D
:10038000151EA2F10102F1DC30BD2DE9F05F05463A
:10039000002092469B4688460646814640241BE044
:1003A000284641464746224600F0E7F953465A465A
:1003B000C01A914110D311461846224600F0CEF9DA
:1003C0002D1A67EB01084F4622460120002100F05C
:1003D000C5F917EB00094E41201EA4F10104DFDC32
:1003E000484631462A464346BDE8F09F10B5141EE4
:1003F00073F1000408DA401C41F1000192185B41DE
:100400001A4301D120F0010010BD2DE9F04D9246B4
:100410009B4611B1B1FA81F202E0B0FA80F22032CB
:10042000904600F09BF904460F4640EA0A0041EA74
:100430000B0153465A46084313D0114653EA0100B4
:1004400019D0C8F14002504600F097F905460E4613
:1004500050465946424600F081F9084305D0012034
:1004600004E020463946BDE8F08D0020054346EA09
:10047000E0762C4337430A986305E40AA0EB0800B2
:100480000022FD0A44EA47540A3002D50020014602
:10049000E9E7010510196941DDE9084500196941DD
:1004A000BDE8F04DA2E72DE9FE4F804681EA03004A
:1004B000C00F0C46009021F0004123F00045B8EB3E
:1004C0000200A94105D24046214690461C460B46F3
:1004D000024623F00040104347D0270DC7F30A001F
:1004E000C3F30A510290401A019040286BDAC3F31B
:1004F000130040F4801B0098924620B10023D2EBF9
:10050000030A63EB0B0B01985946C0F140025046B9
:1005100000F024F906460D4650465946019A00F06F
:100520003CF910EB08006141002487EA115284EA8B
:10053000E7731A4340D0009A62B3019A012A4FEA46
:10054000075215DC001B61EB02014FF0004202EA8A
:100550000752CDE90042001C41F5801132462B467E
:10056000FFF753FF03B0BDE8F08F40462146F9E79F
:10057000001B61EB0201001C41F5801300185B4178
:100580002018A2F5001747EB030140EAD570B61911
:100590006D4111E06D084FEA360645EAC0754FEA35
:1005A0000752001B61EB0201001C41F58011490854
:1005B0004FEA30000019514132462B4603B0BDE8E6
:1005C000F04FFFF713BF0098012240000023D0EB4B
:1005D000020263EBE073009821464FEAE074B8EB47
:1005E000000061EB0401E9E783F000435BE781F081
:1005F000004158E72DE9FE4F81EA030404F000446E
:1006000021F0004100944FF0000B23F0004350EA2A
:1006100001045ED052EA03045BD0C3F30A54C1F371
:100620000A552C44A4F2F3340194A0FB0254C1F304
:10063000130141F48011C3F3130343F4801301FB4E
:10064000024400FB034E840A970A44EA815447EAB5
:100650008357A4FB076802958D0A05FB07854FEABF
:10066000932C04FB0C542705029D4FEA065847EAD9
:100670001637B5EB08056EEB070C870E920E47EAAE
:10068000811742EA8312A7FB0201B6EB0B0164EB70
:1006900000042B0D43EA0C335E1844EB1C50DA4681
:1006A0005146E7FB0201C5F313044FEA0B3343EA5B
:1006B00014534FEA0432019C43EA0603A4F10C04EC
:1006C0000294009CCDE900B4FFF79FFE03B0BDE8A3
:1006D000F08F00200146F9E7C1F30A52C1F313017C
:1006E00040F2FF3341F480119A4202DA00200146C1
:1006F000704740F233439A42A2F2334202DC524244
:1007000000F03BB800F02AB830B5041E71F10004C7
:1007100004DB4FF00044404264EB0101141E73F10E
:10072000000405DB1C464FF00043524263EB040318
:10073000994208BF904230BD064C074D06E0E06884
:1007400040F0010394E8070098471034AC42F6D318
:10075000FFF730FDF0AE000810AF0008202A04DBE0
:10076000203A00FA02F1002070479140C2F12003C4
:1007700020FA03F3194390407047202A04DB203A03
:1007800021FA02F00021704721FA02F3D040C2F1B1
:1007900020029140084319467047202A06DBCB17F8
:1007A000203A41FA02F043EAE07306E041FA02F32C
:1007B000D040C2F12002914008431946704770B5FD
:1007C0008D1810F8014B14F0030201D110F8012B21
:1007D000231106D110F8013B03E010F8016B01F87A
:1007E000016B521EF9D1ABB110F8012B04F00C04CF
:1007F0008A1A0C2C03D0A2EB84129B1C08E010F880
:10080000014BA2EB0422F8E712F8014B01F8014B6F
:100810005B1EF9D5A942D4D3002070BDFEE70000CD
:100820001148012202700021418081804FF4F06361
:10083000C3804FF487630381827210238381042372
:10084000C3814FF4F07303824FF488734382818233
:10085000C1820523037641768176C176017741779F
:100860008177C27770470000740000201148012290
:1008700002700021418081804FF4F063C3804FF407
:10088000876303818272102383810423C3814FF421
:10089000F07303824FF4887343828182C1820523FF
:1008A0000376417681760323C3760177417781779A
:1008B000C2777047740000200649002804D00868F9
:1008C00040F0010008607047086820F001000860EF
:1008D0007047000000000550014948617047000062
:1008E000000005500649002804D0086840F4804004
:1008F00008607047086820F4804008607047000076
:100900000000055070B51E4C012020701D4E204681
:100910001C4BE168351D00690C3B00291CD01A688E
:1009200002F40022C9070AD14AB1316801EBC000C4
:10093000002100F0F3F9E068401EE0601BE0196858
:10094000090318D4296801EBC000012100F0E6F981
:10095000E068401EE0600EE019680A030849496932
:1009600001D5316007E01A68120304D401EB80005E
:100970002860A068E060BDE87040012000F03AB84F
:1009800058000020346402402DE9F04107468846B3
:1009900015461E46154C20680103154802D4122145
:1009A000816104E02168090301D522218161206869
:1009B00020F4002020600021204600F0D1F92068BA
:1009C00040F48020206009481030056032464146DE
:1009D000384600F043FA01221021204600F0FAF9CF
:1009E0002046BDE8F041012100F0BAB92864024078
:1009F0005800002003460020190B074A002906D0A2
:100A0000022906D01169194200D00120704791686F
:100A1000F9E75168F7E700000000055002460020A2
:100A2000034909691140002900D0012070470000E6
:100A3000000005502DE9F05F0120FFF7EFFF0128CE
:100A40005DD1FFF749FF00F0A9F82E48DFF8B89014
:100A5000DFF8B8A02E4DDFF8BCB02F4E41684FF044
:100A60000108002700F11C0439B34760628A218A1B
:100A70002A4801F01FFD307870B137702748C9F857
:100A80000000208A618A48434000CAF800002868B4
:100A9000401C28608BF80080608A218A484300EB64
:100AA000D07041101E4801F0CDF81E480178491C55
:100AB0000170BDE8F05F00F065B8C0F80480628A9C
:100AC000218A174801F0F6FC307870B1377014486D
:100AD000C9F80000208A618A48434000CAF8000033
:100AE0002868401C28608BF80080608A218A48436F
:100AF00000EBD0704110094801F0A4F8D5E7BDE83B
:100B0000F09F0000580000204414002048140020EA
:100B100040140020381400203A140020000030D087
:100B2000000010D024000020064A002903D0D1681C
:100B30000143D1607047D168C04380B20140D160A9
:100B4000704700000000055030B50D490A6844F2B6
:100B500001039A430A600A6840F6F2739A430388D5
:100B60004488C588234384882C4323430489234332
:100B7000448980892343034313430B6030BD000045
:100B80000000055010B50121034800F0E9F8BDE868
:100B900010400120FFF790BE2864024010B5054CBC
:100BA0000021204600F0DCF8204600F0F1F8002893
:100BB000FAD110BD2864024010B50121CC052046B1
:100BC00002F0E4FE2046BDE81040002102F0DEBE47
:100BD00001460020024A52680A4200D001207047B4
:100BE00000B0024030B500242A4B19682A4A11404F
:100BF00019601968026811431960596B21F00701E7
:100C00005963596B4268114359634168002928D0E0
:100C100001292DD0022930D0032933D0C1680A011F
:100C200001690902446924038568214315430D4382
:100C3000996B0D439D638169D963196C6FF30D0145
:100C40001964196CC26911431964818C09045A6CC6
:100C500002F040425A645A6C006A02430A435A64E2
:100C600030BDC1680A02018A0904047D2406DBE75D
:100C7000C1680A02018A0904D6E7C1684A0101690C
:100C8000C902D1E7C1684A01016989024469E403E4
:100C9000CAE7000000B00240FCE0FCFF0248016827
:100CA00041F001010160704700B0024070B5184D7D
:100CB000184C2946204600F073F8012827D12068F7
:100CC000400311D52946204600F034F82168090375
:100CD00003D4BDE87040FFF715BE2068000316D5A9
:100CE000BDE87040FFF70EBE2268520304D4002214
:100CF0001021204600F06EF82946204600F01AF830
:100D0000054911208861BDE87040FFF7FBBD70BD4B
:100D1000000800102864024058000020002902D07A
:100D20000349086070470249091F086070470000C6
:100D300038640240074A904201D2074801E0054862
:100D40001038064A8B0001EA020101D5C1607047E4
:100D50008160704710640240006002407D0F7D0F8B
:100D6000002904D0016841F0010101607047016869
:100D700021F0010101607047002904D0016841F4AD
:100D8000802101607047016821F480210160704773
:100D9000014600200968C90700D001207047000003
:100DA00002460020084B9A4201D2084A01E0064A56
:100DB000103A8B0001D5526800E01268044B1A40CB
:100DC0000A4200D0012070471064024000600240D7
:100DD0007D0F7D0F0B0609D522B1436943F08003D7
:100DE000436103E0436923F080034361802905D018
:100DF00001F01E011AB102680A43026070470268DE
:100E00008A4302607047000030B50368124A1340FD
:100E1000CC680A682243D1E905452C432243CC69BA
:100E200022430C6A22434C6A22438C6A22434C6B55
:100E300022438C6B22431A430260426922F007036B
:100E4000D1E90B2422431A4342610A6942604A688D
:100E500082608968C16030BD3F801CF0034B1A601E
:100E60001A1D1060101D0160704700002C640240C4
:100E70000021016041608160C16001614161816167
:100E8000C161016241628162C16201634163816348
:100E90007047704770B586B00121084602F068FDC2
:100EA0000121102002F0B8FD1E4E07220A21304613
:100EB00000F086FE07220921304600F081FE002462
:100EC0008DF8164001208DF8170002258DF814507A
:100ED000410204918DF8155004A9304600F032FE0D
:100EE0008DF814506802049004A9304600F02AFEE0
:100EF0004FF4E1300090ADF80440ADF80640ADF895
:100F00000840ADF80C400C20ADF80A00064C6946CC
:100F1000204603F08DFA0121204603F075FA06B051
:100F200070BD0000000002400010014001B5034800
:100F30000099016001680029FCD108BD540000201F
:100F400001B503480099016001680029FCD108BD82
:100F50005400002010B500F0FDF800F031FB012135
:100F6000002000F001FC400704D50348416841F02F
:100F70001001416010BD0000701400201B4A506831
:100F800003681146002B89680DDB0368DB050AD571
:100F90008B685B1C8B608B68012B00D108605068EC
:100FA0004860012070470368002B0EDB03689B0537
:100FB0000BD50368DB0508D40860002048600120D9
:100FC00088605068C06850600DE00368002B0ADB41
:100FD00003689B0507D40368DB0504D48B685B1C9E
:100FE0008B60C068506000207047000078140020BB
:100FF00070B50121002000F0B7FB00F004040A4D99
:1010000001262CB1687818B9084805F056FF6E70B3
:10101000002C08D16878002805D02E70034805F010
:101020003FFF0020687070BD70140020141A00206B
:101030000649002804D0886940F0020088617047A2
:10104000886920F00200886170470000009002402B
:101050002DE9F0410023124F78604FF0004C44F22C
:10106000F458561E14E000EB4314C4F800C0C4F852
:101070000480C3EBC31505EB450501EB8505A560B1
:10108000B34203D204F12005E56000E0E0605B1CA0
:101090009342E8D30349C8600348B860BDE8F081D3
:1010A0007814002000900240A84B00200649002838
:1010B00004D0886940F4005088617047886920F442
:1010C000005088617047000000900240F0B5002396
:1010D0000E4C20604FF48017561E11E000EB4314B5
:1010E0002760C3EBC31505EB450501EB8505A5603E
:1010F000B34203D204F12005E56000E0E0605B1C30
:101100009342EBD302490861F0BD0000781400203F
:101110000090024002680A430260704710B5012146
:101120004C06204602F032FC2046BDE8104000216B
:1011300002F02CBC38B5064CA06940F48010A061C8
:10114000A06900900120FFF7F1FE0098A06138BD72
:10115000009002402DE9FC41012140F2471002F0CD
:1011600007FC01218F03384602F056FC012003F0F2
:101170006BF80224009403268DF8056001208DF899
:10118000040000258DF806508DF80750DFF8008127
:101190006946404600F0D6FC0221404600F027FD9B
:1011A0000520FFF7C3FE0221404600F022FD052086
:1011B000FFF7BCFE042000908DF805608DF8044018
:1011C0008DF806508DF80750324E6946304600F0D3
:1011D000B9FC0B220221304600F0F2FC00942E4DA7
:1011E0006946284600F0AEFC0B220121284600F09B
:1011F000E7FC00946946304600F0A4FC0B22012174
:10120000304600F0DDFC802000906946304600F05A
:1012100099FC0B220721304600F0D2FC10200090F0
:101220006946284600F08EFC0B220421284600F077
:10123000C7FC202000906946284600F083FC0B2262
:101240000521284600F0BCFCA0020090134C694622
:10125000204600F077FC0B221146204600F0B0FC3F
:10126000781000900E4C6946204600F06BFC0B2273
:101270000D21204600F0A4FC00976946204600F0AE
:1012800061FC0B220E21204600F09AFCBDE8FC8197
:10129000002002400000024000080240000402401A
:1012A00000180240002003490968C90700D0012046
:1012B00070470000009002401EB500210191094BCB
:1012C00059680A68C2F30D42121F00929A681468A6
:1012D0000294126892680192C96859609DE80E00F4
:1012E0000EC01EBD781400202DE9F04788B00446DA
:1012F000884600270797029701200190984E306991
:1013000020F01C0503A802F095FB04989549964A25
:101310000144914202D245F0080516E09349944AEF
:101320000144914202D245F00C050EE09149924AE7
:101330000144914209D3914908449149884202D21B
:1013400045F0040501E045F0100535614FF4004219
:101350000021404600F0ACFA4FF400694FF4804A97
:10136000B0B1FF20FFF7E2FD2068B8B3854D0298C9
:10137000401C02900121404600F0F6F9400702D4DB
:101380000298A842F3D30298A84203D101973FE004
:1013900001973DE002974FF480520021404600F053
:1013A00087FA00B901970298401C0290012140463B
:1013B00000F0DAF9800602D40298A842F3D302982A
:1013C000A84201D1019723E002971F21404600F077
:1013D000CBF9C10603D5C4F8209001E007E02762ED
:1013E000400701D5676113E0C4F814A010E0206A3B
:1013F0000021C0F3CF026069C0F34F0002434046B2
:1014000000F056FA00B9019740F6FF70FFF78EFD25
:10141000019818B9C4F82090C4F814A030685A494B
:101420000840D4E901121143E26854F8103F1A430E
:10143000114362681143A2681143E26811432269B3
:10144000114362691143A2691143E2691143226A9F
:101450001143626A1434114301433160356801203D
:10146000FFF764FD356054F8140F61680843D4E950
:101470000212114308432169084361690843A169C5
:101480000843E1690843706075680120FFF74EFD6D
:101490007560206AB060606AF060B1694FF64170B3
:1014A0000140D4E90B021043238D626B42EA0342F0
:1014B0001043A26B1043E26B10430843B061B5695F
:1014C0000120FFF733FDB561D4E910010843F06155
:1014D000F5690120FFF72AFDF5612C4DA9692C481B
:1014E0000140D4E912021043D4E914231A431043F3
:1014F000A26D1043E26D1043226E1043626E1043E2
:10150000A26E10430843A861AE690120FFF70EFDEB
:10151000AE61D4E91B010843616F54F8782F114381
:101520000843616840EA8100A168084340F4000074
:1015300028602C680120FFF7F9FC2C60286840F037
:10154000800028602C680120FFF7F0FC2C600198D7
:10155000012803D0002008B0BDE8F0870120FAE799
:101560000080024000D3CEFEC0E1E40040F1E9FD7E
:1015700040787D0100796CFC005A6202001F0AFA73
:1015800080F0FA02FFFF04000F8120FF009002406C
:10159000233FDEF80A794B7942EA0322074B1844CD
:1015A00002640A78CB7842EA03628B7849781B049C
:1015B00043EA01210A434264704700000080024070
:1015C00010B501214FF0606002F0D2F9FFF7A6FDDF
:1015D00000F0F6F8FFF766FE0128FBD0194800F08E
:1015E00019F918480121343040F8341C002140F822
:1015F000181C4FF4007240F80C2C40F8081C416095
:1016000001618161C1610162520040F8102CC16426
:10161000D203026513118365016641660421C16628
:10162000026789034167890181674912C1674900DF
:10163000C0F8841000213438FFF756FE0249486094
:1016400010BD00004C1A00207014002038B5002195
:1016500000910A4C002804D0206840F0040020606B
:1016600003E0206820F00400206020680090012042
:10167000FFF75CFC0098206038BD0000008002404D
:1016800038B5002100910A4C002804D0206840F0B1
:101690000800206003E0206820F008002060206837
:1016A00000900120FFF742FC0098206038BD000048
:1016B0000080024070B50023294E31680A68002A74
:1016C00001DA002070BD40F2F455A84208D9B0FB01
:1016D000F5F2B0FBF5F405FB140414B1521C00E064
:1016E0000122012A2ED10A6842F040520A60C0F35A
:1016F0000C004860086840F000400860C96823E0BA
:101700000C6824F040540C601BB90C6844F0805401
:101710000C604D60541EA3420ED10C6844F000547E
:101720000C60C2F10104C4EBC41404EB440400EBEC
:101730008404C4F30C044C600C6844F000440C6056
:10174000C9685B1C9342DBD3316006484169490795
:1017500003D50421416100214160012070BD0000DA
:10176000781400200090024018B500220092124A1E
:10177000136903F01C044FF6FF7303EAC0232343ED
:101780004FF4F86000EA8110184320F0020040F0A6
:101790000100106109490098401C00901069C007C1
:1017A00002D000988842F6D30098884201D10020E8
:1017B00018BD506980B218BD00800240FFFF0400D0
:1017C0000248016841F00101016070470090024049
:1017D00010B50120FFF754FF0120FFF737FFFFF797
:1017E000A9FC0120FFF762FCBDE810400120FFF7D3
:1017F0001FBC10B50020FFF759FC0020FFF718FCB4
:101800000020FFF723FFFFF795FCBDE81040002004
:10181000FFF736BF01210160002141608160C16096
:1018200001614FF4804242618161C161D210026264
:1018300041628162C162016341638163C16340228D
:101840000264202242648164C1640165416581654E
:10185000C1650166802242668166C1660167416793
:101860008167C167D204C0F880205210C0F884207C
:10187000C0F888101311C0F88C30C0F89010C0F870
:101880009410C0F89810C0F89C10C0F8A010C0F8D0
:10189000A4205212C0F8A8209201C0F8AC20521225
:1018A000C0F8B020C0F8B410C0F8B81070470000FD
:1018B00038B500230093124B1C6904F01C054FF649
:1018C000FF7404EAC0242C434FF4F86000EA81104E
:1018D000204340F0020040F001005A6118610949BC
:1018E0000098401C00901869C00702D000988842F8
:1018F000F6D30098884201D1002038BD012038BDC0
:1019000000800240FFFF04007FB50026039690F898
:101910003100C00649D5284D286888B300214FF40E
:1019200080520846FFF7C4FF244C0398401C0390E4
:1019300001210020FFF718FF800602D40398A0427F
:10194000F3D303961F210020FFF70EFFC10603D536
:101950004FF40061296200E02E62400701D56E61FC
:1019600002E04FF480406861154C21682A6A68697A
:101970001043084320600120FFF7D8FA2068206058
:10198000FFF726FF0F4802906FF07F4001900E484E
:1019900000906B4601AA02A90C4805F01BFA0B48FF
:1019A00005F0B3FA0A4806707FBDFFF722FF07482B
:1019B00005F028FA7FBD00004C1A0020FFFF04004C
:1019C00000800240C0A8017AC0A80101141A0020BA
:1019D0007014002000224FF0204310280AD0B0F5E8
:1019E000807F09D0B0F5805F09D0D3F858018143DA
:1019F00009D107E0586EFAE7D3F88400F7E7D3F887
:101A0000A400F4E70122104670470000D0E900125C
:101A100011438268C068521E520142EA40200143CD
:101A20000148016070470000500100A070B50468D3
:101A3000A100A1F1C041D1F84011CE0BF603D0E9CD
:101A400001121143D0E903231A4311434269C369C8
:101A500011438269056A11431943426A29431143BC
:101A600031434FF02046002C3CD0D6F840416FF374
:101A70000E042B4322431343C6F840310268920000
:101A8000A2F1C042C2F84011016871B38900A1F10E
:101A9000C041D1F8481101F07043816A0A684C686E
:101AA000521E641E42EA04148A68521E44EA02244A
:101AB0000A8A521E44EA02421A43D6F8483103F019
:101AC0007043CC68898A641E2403491E44EA01518C
:101AD0001943C6F8481100688000A0F1C040C0F862
:101AE000482170BDC6F84011CEE7FFE7D6F848118F
:101AF00001F07041806A02684368521E5B1E42EA30
:101B000003138268521E43EA0223C268521E43EA4C
:101B10000233028A521E43EA0243828A007E521E28
:101B200043EA0252401E42EA00600843C6F84801F8
:101B300070BD000002490A6842EA40000860704730
:101B4000540100A02DE9F041002201274FF0030CC1
:101B500007FA02F50B682B40AB422CD10668530004
:101B60000CFA03F4A64306600E79D0F800809E407C
:101B700046EA080606600E79012E01D0022E12D127
:101B80008668A64386604E79D0F808809E4046EA73
:101B9000080686604668AE43466045688E79964082
:101BA000B6B235434560C568A543C560CC799C4055
:101BB000C3681C43C460521C102AC9D3BDE8F0811D
:101BC00010B54B07DB0E9A40C90800EB8100016A93
:101BD0000F249C40A1430162016A1143016210BDC0
:101BE0000246002012690A4200D00120704741835A
:101BF000704701837047000070B505460C46104ED3
:101C00003078002803D102F02FFA01203070220A28
:101C1000E1B2A13AC2EB021000EB421001EB40012D
:101C2000A13901EBC1008101C81701EB5070C1104F
:101C3000482201F5AA01284602F0F0F9002070BD03
:101C40004C0000202DE9F04391B005468846394EFE
:101C500000221C213046FFF7BDF837493046FFF718
:101C600069F800213046FFF77BF802A8FFF700F97A
:101C70004FF000700290002405940794C013089060
:101C80008000099080000A9080110B9040020C9017
:101C900004200D9003200E904FF400000F9010943C
:101CA00002A93046FFF7B0F839208DF804008DF80E
:101CB00005408DF806404FF001098DF8079001A806
:101CC00000F06EFE4FF480301C4F80450DD2002096
:101CD000FEF7F2FD424629463846FFF7BFF80122DB
:101CE00010213046FFF776F81DE0154CC4F80C9033
:101CF000C4F81080656104E049082161E168490089
:101D0000E16021698142F7D201213046FFF734F8C2
:101D1000E068801EE060A060236905EB830229462D
:101D20003846FEF731FE0120FEF7C6FD11B0BDE8D2
:101D3000F083000028640240000F001028000550C6
:101D40005800002001A002F0D7FBFBE70D0A206835
:101D50006172646661756C7421000000002904D012
:101D6000018841F4806101807047018821F480611D
:101D700001807047034600209A8A1B8B1B041A437C
:101D800022F07F42914300D101207047002904D006
:101D9000018841F0010101807047018821F00101B3
:101DA0000180704710B5154988420AD101214C05C0
:101DB000204601F023FE2046BDE81040002101F03E
:101DC0001DBE0F4988420AD101218C05204601F031
:101DD00015FE2046BDE81040002101F00FBE094964
:101DE00088420AD10121CC05204601F007FE204699
:101DF000BDE81040002101F001BE10BD00540040BC
:101E000000580040005C0040002904D0018841F4E3
:101E1000807101807047018821F4807101807047D2
:101E2000002904D0018841F40071018070470188C5
:101E300021F40071018070477FB504460D46A088EB
:101E400020F03F06684601F0F5FD02982749B0FBF7
:101E5000F1F189B20E43A680228822F0010222808D
:101E6000234B2A689A4209D85200B0FBF2F080B2A4
:101E7000042800D20420491C218423E0EB88A3F528
:101E80003F46FF3E0BD002EBC20303EB0212B0FB56
:101E9000F2F080B240F48040020506D007E002EB89
:101EA0004202B0FBF2F080B2F6E740F0010040F4ED
:101EB00000404FF4967251434FF47A72B1FBF2F145
:101EC000491C2184A083208840F0010020802088C4
:101ED0004FF6F5310840A9886A89114301432180F2
:101EE000A8892989084320817FBD000040420F0056
:101EF000A0860100008AC0B27047002A02D041F0DB
:101F0000010101E001F0FE0101827047018270478A
:101F100070B504460D4629462046FFF761FE0128AC
:101F200001D0002070BD29462046FFF759FE012848
:101F3000F9D0012070BD00002DE9F0418AB0804643
:101F4000174F3988CC0A01F01F05C1F34516FEF77B
:101F500033FE4FF44030009002200190039602952A
:101F600004944FEA08400012000E0590786806902D
:101F7000002007904FF4887008904FF4F07009909B
:101F80006846FEF72FFEFEF789FE0220FEF720FED0
:101F90000028FAD0388800F03BFB0AB0BDE8F08199
:101FA000340000202DE9F04393B0C0EB0010850110
:101FB0000C46114601A8FFF71FFE0022164F0DF137
:101FC000040C7B6802EB42001CF80010090260441C
:101FD00046780E4336028178314300203E88B7F8B8
:101FE00002805FEA012904D503EB440929F8056062
:101FF00003E003EB440929F80580641C4900401CF8
:10200000C0B21828EDD304F5E474521CD2B2182AD9
:10201000D8D313B0BDE8F0833400002010B4203AC8
:10202000D3B2054AD2681468D2885A4304EB4202FC
:1020300010BC00F033B80000340000202DE9F0415E
:1020400080460D460024144E4FF4F07717E07E2AA8
:1020500009D821464046FFF7E1FFF0688088204418
:1020600084B26D1C0BE02988080200EB112082B2BB
:1020700021464046FFF796FF1834A4B2AD1CBC427F
:1020800008D22A78002A05D0F0688188081980B221
:102090008842DCD2BDE8F081340000202DE9F04315
:1020A0000024C0EB00108701DFF87890D9F804C055
:1020B000D9F80C6030E0002026E00C25B3FBF5F5E4
:1020C000ED004FF0800808FA05F832F8145048FA8D
:1020D00000F818EA050F01D10C2B08D94FF00108C0
:1020E00008FA00F815EA080F07D10C2B05D90CEBFC
:1020F0004105B9F80230EB5304E00CEB4105B9F8A7
:102100000030EB53491C401CB3888342D5D8B088BB
:10211000C0F5F0700144641CF088A042CBD8BDE843
:10212000F0830000340000202DE9FC5F012140F223
:10213000FF1001F01DFC4FF00408CDF800800220D4
:102140008DF805008DF8040000208DF806008DF84C
:1021500007006946AA48FFF7F5FC0E220221A848AD
:10216000FFF72EFD4FF00809CDF800906946A4480E
:10217000FFF7E8FC0E220321A148FFF721FD4FF4F1
:10218000807ACDF800A069469D48FFF7DBFC0E225F
:1021900008219B48FFF714FD0124009469469948E3
:1021A000FFF7D0FC092200219648FFF709FD4FF404
:1021B000006BCDF800B069469348FFF7C3FC0E22D0
:1021C0000B219148FFF7FCFC2003009069468E48E4
:1021D000FFF7B8FC0E220C218B48FFF7F1FC022020
:1021E000009069468748FFF7ADFC09220121854828
:1021F000FFF7E6FC4025009569468448FFF7A2FCFE
:102200000E2206218148FFF7DBFC20200090694662
:102210007F48FFF797FC0E2205217D48FFF7D0FC91
:10222000009569467A48FFF78DFC0E220621784812
:10223000FFF7C6FC6003009069467148FFF782FC17
:102240000E220D216E48FFF7BBFCA60200966946E0
:102250006E48FFF777FC09220A216C48FFF7B0FCB3
:10226000E003009069466648FFF76CFC0E220F21E0
:102270006348FFF7A5FC009469466648FFF762FCD7
:102280000E2200216348FFF79BFC802700976946D8
:102290006148FFF757FC0E2207215F48FFF790FCCB
:1022A000CDF8008069465B48FFF74CFC0E22022106
:1022B0005848FFF785FC4FF01008CDF800806946BC
:1022C0005348FFF73FFC0E2204215148FFF778FCEA
:1022D0002003009069464D48FFF734FC0E220C2184
:1022E0004A48FFF76DFC00954C4D69462846FFF7BC
:1022F00029FC0E2206212846FFF762FCCDF800B02B
:1023000069464248FFF71EFC0E220B213F48FFF7AB
:1023100057FCCDF8008069463E48FFF713FC0E22BB
:1023200004213C48FFF74CFCCDF800906946364844
:10233000FFF708FC0E2203213348FFF741FCCDF8DC
:1023400000A069462F48FFF7FDFB0E2208212D480B
:10235000FFF736FC4FF40079CDF800906946294824
:10236000FFF7F0FB0E2209212648FFF729FC009712
:1023700069462648FFF7E6FB0E2207212348FFF7B0
:102380001FFC009669462348FFF7DCFB0E220A215A
:102390002048FFF715FCCDF8009069461D48FFF76F
:1023A000D1FB0E2209211B48FFF70AFC00961C4EA8
:1023B00069463046FFF7C6FB0E220A213046FFF77A
:1023C000FFFBCDF8008002208DF805008DF8044059
:1023D00000208DF806008DF8074069462846FFF773
:1023E000B1FB009769462846FFF7ACFB1021284651
:1023F000FFF7FFFB80212846FFF7FBFBBDE8FC9FB2
:10240000001C02400004024000000240001802408C
:10241000001002400020024000080240000C024070
:10242000001402400148C0687047000034000020DA
:1024300000B58FB00121880601F0EEFA0121C80530
:1024400001F096FAFFF770FE01F048FD00200090C1
:102450000190029003900C900D900E9004220721A1
:102460004FF4C07001F064FB4FF4803001F050FB7A
:10247000012001F057FB3D2001F02EFB0028FAD08F
:102480002820049009200590302006900B2007900A
:102490004FF40470089040F21B1009904FF405703F
:1024A0000A9040F21F100B90684600F0EFF80FB052
:1024B00000BD000070B590B00446092000900831BE
:1024C000019103250295901C039002200490FF20A7
:1024D0000590002106910791089109914FF48060C1
:1024E0000A9005200B9040F2C3300D90C01E0E9054
:1024F0000F920C94114E6946304600F029F904956C
:1025000004F57F340C9468020A9007200B900B4866
:102510006946803000F01CF9012000F065F90121C6
:10252000304600F009F9012000F05EF9044800F09F
:1025300057F8012000F09AF810B070BD846801408F
:102540004400002030B591B0092001904FF4F470A0
:102550000290032403944FF48970049002200590A4
:10256000FF20069000200790089009900A904FF4F1
:1025700080600B9005200C9040F2C3300E90C01E7E
:102580000F904FF4887010904FF050400D90114D07
:1025900001A9284600F0DCF805940F490D9161026D
:1025A0000B9107210C910B4801A9803000F0D0F865
:1025B000012000F019F90121284600F0BDF80120A2
:1025C00000F012F9054800F00BF8012000F04EF879
:1025D00011B030BD8468014000FC03D044000020ED
:1025E0000149C860704700003400002006490028F7
:1025F00004D0064848600120886070474FF0504082
:1026000048600020886070473400002000FC03D040
:1026100001490880704700003400002010B50949C6
:102620008968002908D00146074800F083F8BDE812
:102630001040012000F0D8B801460348803800F06F
:1026400079F8F4E7340000200469014006490028C5
:1026500004D0086840F0010008607047086820F066
:102660000100086070470000186801400649002812
:1026700004D0086840F4803008607047086820F48F
:1026800080300860704700001868014030B5264A65
:10269000136826490B401360038A1B0414684569BC
:1026A0002C431C431460121D13680B401360038BF2
:1026B0001B041468C5692C431C431460121D136865
:1026C0000B401360038C1B041468456A2C431C43A5
:1026D0001460121D13680B401360018D0904136808
:1026E000C46A23430B431360111D0A68104B1A4040
:1026F0000A60D0E900231A43D0E9023423431A4385
:102700000B681A430A60416B0A02018E0B040649EA
:1027100024310C6804F07F440C600C68806B134318
:1027200004431C430C6030BD0868014000F800F011
:102730008F88FE0F41617047002904D0016841F085
:10274000010101607047016821F0010101607047DB
:1027500070B58A881204436803F4704343600B68C1
:10276000134343608A891204836803F470438360CF
:102770008B6813438360026922F0070202610A69D1
:102780000261CA6913020A8C120491F824402406DB
:102790008569002585618E6922431E431643866143
:1027A000426922F0FF0242614A694261C26940F215
:1027B00007739A43C261D1E90A231A43C261826A4C
:1027C00085620A6B82620A8F1204C36A03F0E023F7
:1027D000C3624B6B1343C362026B6FF30A02026363
:1027E000C96B016370BD00000149086070470000BB
:1027F0002468014010B586B004F0A2F904F088FA0C
:10280000264805906FF07F400490254803902649A4
:102810000024CDE900412348029003AB04AA05A996
:10282000224804F0B1FA214804F0E6FA2048006892
:1028300011280ED01D4804F0E5FA1EA001F05CFE40
:1028400022A001F059FE2749184804F025FB06B0E4
:1028500010BD16483130017841F010010170313857
:1028600004F053FB20A001F047FE7A2000900123E2
:10287000A822C02123A001F03FFEFF231A461946DB
:1028800025A0009401F038FE012003460090A82204
:10289000C02127A001F030FED5E70000C0A8017AD2
:1028A000C0A80101FD590008915A0008141A00201F
:1028B000741400200A20204E6574776F726B2043D9
:1028C00061626C6520697320200A000020202020AE
:1028D0006E6F7420636F6E6E656374656420202074
:1028E0000A000000091900080A2020537461746965
:1028F0006320495020616464726573732020200A4C
:102900000000000049503A2025642E25642E2564DD
:102910002E25640A000000004E45544D41534B3AA9
:102920002025642E25642E25642E25640A000000CF
:10293000476174657761793A2025642E25642E25D8
:10294000642E25640A00000031B5104C00982168FF
:10295000401AFA2803D30098206006F001FD009881
:102960006168411A41F28830814203D30098606067
:1029700002F0E2FF0098A168401AB0F57A7F04D314
:102980000020FEF735FB0098A06038BD64140020DD
:10299000014803F091B80000141A0020FEE77047C8
:1029A00030B50F23C27801250178002A1FD0154ABF
:1029B000126802F4E062C2F5E062C2F30722C2F1DB
:1029C0000404D3404278A24084781C40144322017E
:1029D00001F1E02181F80024007800F01F018D4012
:1029E0004009800000F1E020C0F8005130BD01F046
:1029F0001F0085404809800000F1E020C0F88051A8
:102A000030BD00000CED00E00249084302490860B7
:102A1000704700000000FA050CED00E010B500F072
:102A200061F9BDE8104000F037B970B5044643F2D3
:102A300012250321284600F025FF2007010E45F24C
:102A4000875000F01FFF45F28850002C03DB012166
:102A500000F018FF02E0092100F014FF13212846BE
:102A600000F010FF2846BDE87040A32100F00ABF27
:102A70002DE9F041054643F212270321384600F0C4
:102A800001FF1C2145F2813000F0FCFE5A2145F285
:102A9000823000F0F7FE062145F2833000F0F2FEAE
:102AA0000024ED1C05EB4500104945F2843501EB8F
:102AB00040066019315D00F0E5FE641CE4B2062CAE
:102AC000F7D3982145F28B3000F0DCFE012145F26E
:102AD0008A3000F0D7FE1321384600F0D3FE384686
:102AE000BDE8F041A32100F0CDBE0000D8AC000845
:102AF00070B5044643F212260321304600F0C2FEB0
:102B00000C4DE41C45F2865015F8141000F0BAFE86
:102B100005EB4400417845F2855000F0B3FE1321E7
:102B2000304600F0AFFE3046BDE87040A32100F013
:102B3000A9BE000002AD000870B5044643F212259C
:102B40000321284600F09EFEE41C174E04EB4404CB
:102B500043F60F2016F8141000F094FE06EB440420
:102B600043F61020617800F08DFEA17843F6112025
:102B700000F088FEE17843F61B2000F083FE217907
:102B800043F61E2000F07EFE617943F61F2000F020
:102B900079FE1321284600F075FE2846BDE87040F6
:102BA000A32100F06FBE000010AD00082DE9FF4129
:102BB0000024002000900190029003904FF44050B8
:102BC00000F01AFC8DF8000043F2040000F014FC41
:102BD0008DF801004FF47C5000F00EFC8DF80200DF
:102BE00043F2010000F008FC8DF8030043F20500F9
:102BF00000F002FC8DF8040043F21805284600F0AE
:102C0000FBFB8DF80500AE1D304600F0F5FB8DF89E
:102C10000600EF1C384600F0EFFB8DF8070043F28A
:102C20004208404600F0E8FB8DF80800284600F016
:102C3000E3FB8DF80900304600F0DEFB8DF80A005A
:102C4000384600F0D9FB8DF80B00404600F0D4FB6D
:102C50008DF80C006D4640F2DF162B5D22463146A2
:102C600003A001F049FC641C0D2CF6DBBDE8FF81DC
:102C70003C3C2D43414D4552412D44454255472D45
:102C80003E3E205B25645D636865636B5B25645D28
:102C90003D307825780A0A0070B543F223050121FA
:102CA000284600F0EFFD0421681E00F0EBFD41F224
:102CB00088342E46304600F09FFB0546641E601C9B
:102CC00005D00A20FEF73CF9002DF3D170BD2A464D
:102CD000BDE870404FF4AF71014801F00DBC000039
:102CE000E8AD00082DE9F04164244FF48A713AA060
:102CF00001F002FC4FF440572021384600F0C2FD9D
:102D000040F65D752A464FF48C7140A001F0F4FB4B
:102D10002946494800F03AFD002143F2220000F024
:102D2000B1FD002143F2230000F0ACFD002143F28D
:102D3000240000F0A7FD002143F2250000F0A2FDD1
:102D4000002143F2260000F09DFD002143F2270000
:102D500000F098FD002143F2280000F093FD43F2BB
:102D60002906FF21304600F08DFD0021384600F095
:102D700089FDFF21381D00F085FD0021084600F087
:102D800081FD0021084600F07DFD0021084600F08D
:102D900079FD0021084600F075FD40F22F173046FE
:102DA00000F02AFB05462A46394624A001F0A4FB80
:102DB0000A20FEF7C5F8641E601C05D0702DEED108
:102DC000BDE8F041FFF7F2BE2A464FF49A71284859
:102DD00001F092FBF4E700003C3C2D43414D45528D
:102DE000412D44454255472D3E3E205B25645D4FB5
:102DF00056353634305F464F4355535F414435387E
:102E000032305F496E69740A0A0000003C3C2D4371
:102E1000414D4552412D44454255472D3E3E205B94
:102E200025645D546F74616C20436F756E74203D32
:102E30002025640A0A000000D80400203C3C2D43F1
:102E4000414D4552412D44454255472D3E3E205B64
:102E500025645D7768656E20696E69742061662CF3
:102E60002073746174653D307825780A0A0000008B
:102E70002CAE000810B543F23502541C00280BD0CC
:102E8000012813D14121104600F0FCFC2046BDE88A
:102E90001040722100F0F6BC2121104600F0F2FC37
:102EA0002046BDE81040722100F0ECBC10BD0000CF
:102EB0002DE9F04F87B0012140F2CB1000F058FD12
:102EC000202705974FF002088DF8188003208DF811
:102ED000190000248DF81A4001258DF81B5005A912
:102EE0007A48FEF72FFE0D2205217848FEF768FE8E
:102EF00010200590DFF8D89105A94846FEF722FE7C
:102F00000D2204214846FEF75BFE4026059605A9E2
:102F10004846FEF717FE0D2206214846FEF750FEF2
:102F200068020590DFF8ACB105A95846FEF70AFE25
:102F30000D2209215846FEF743FE4FF48069CDF873
:102F4000149005A95846FEF7FDFD0D220A215846AA
:102F5000FEF736FEE802059005A95846FEF7F2FD99
:102F60000D220B215846FEF72BFE2803059005A9DC
:102F70005846FEF7E7FD0D220C215846FEF720FECD
:102F80004FF4804ACDF814A005A95846FEF7DAFDA3
:102F90000D220E215846FEF713FE4FF0080BCDF818
:102FA00014B005A94C48FEF7CDFD0D2203214A4877
:102FB000FEF706FE059605A94448FEF7C3FD0D225F
:102FC00006214248FEF7FCFD8020059005A93F48F8
:102FD000FEF7B8FD0D2207213C48FEF7F1FD8DF804
:102FE00018508DF819408DF81A408DF81B50CDF807
:102FF00014B0DFF8E8B005A95846FEF7A3FD059721
:10300000374F05A93846FEF79DFD20213846FEF7CB
:10301000EEFD08215846FEF7ECFD0A20FDF790FF73
:1030200008215846FEF7E3FD0A20FDF789FF20211D
:103030003846FEF7DEFD0121480500F0D1FC0121F4
:10304000022000F095FC042206213846FEF7B8FD68
:10305000042207213846FEF7B3FD05968DF8188047
:103060008DF819408DF81A508DF81B4005A9384687
:10307000FEF768FD042206213846FEF7A1FD8020F8
:10308000059005A93846FEF75DFD164D2846FEF76A
:1030900089FEADF808404BF6FF71ADF80A10FE202E
:1030A000ADF80C00ADF80E90ADF810A00E480190F0
:1030B00001A92846FEF7C0FE01212846FEF766FE5C
:1030C0003220FDF73DFF07B0BDE8F08F0020024041
:1030D00000000240001C0240000C024000180240A8
:1030E0000004024000540040801A060030B585B04C
:1030F0000121084600F058FC0121880500F038FC49
:103100000024ADF80440ADF806402020ADF80800DA
:103110008020ADF80A00ADF80C40ADF80E40ADF8D7
:10312000104001A8FDF710FD1849088A498A484354
:1031300000EBD07041101648FEF784FD4FF4C060DC
:10314000FFF762FC39208DF8000001258DF8015051
:103150008DF802508DF803506846FFF721FC0122DC
:1031600010210C48FDF736FE4E208DF800008DF83A
:1031700001408DF802508DF803506846FFF710FCAF
:1031800001210846FDF7D0FC05B030BD74000020D9
:10319000000010D02864024070B5044643F21225A6
:1031A0000321284600F06EFB184EC4EBC40443F222
:1031B0000640315D00F066FB34444FF450506178B6
:1031C00000F060FBA17843F2014000F05BFBE17886
:1031D00043F2024000F056FB217943F2034000F035
:1031E00051FB617943F2044000F04CFBA17943F2BA
:1031F000054000F047FB1321284600F043FB28461A
:10320000BDE87040A32100F03DBB00003AAD0008CE
:103210002DE9F0478146089F0C4615461E4645F2AB
:103220000108404600F0E8F8B9F1000F3CD040F04A
:103230002001404600F026FB210A43F6100000F072
:1032400021FBE1B243F6110000F01CFB290A43F612
:10325000120000F017FBE9B243F6130000F012FB76
:1032600043F212240321204600F00CFB310A43F6FE
:10327000080000F007FBF1B243F6090000F002FB82
:10328000390A43F60A0000F0FDFAF9B243F60B00E2
:1032900000F0F8FA1321204600F0F4FA2046BDE8C9
:1032A000F047A32100F0EEBA20F02001404600F0E4
:1032B000E9FAC1E72DE9F84300F046F90024384E59
:1032C000384F40F2623806EB840536F82400A978BE
:1032D00000F0D8FA36F8240000F08EF827F8140031
:1032E00000906B8836F8242041462FA001F004F9A5
:1032F000641CD02CE7D34FF4FA70FDF721FE284967
:103300003C394888B0F5A07F06D0B0F5207F06D0C4
:10331000B0F5487F06D007E00020487004E00220A6
:10332000487001E003204870487888B102281DD019
:10333000294D032828D0002405EB8400817835F836
:10334000240000F09FFA641C562CF5D3BDE8F883E6
:103350000024214D583D05EB8400817835F8240088
:1033600000F090FA641C162CF5D3EFE700241A4DF8
:103370002C3D05EB8400817835F8240000F082FABA
:10338000641C162CF5D3E1E7002405EB840081785A
:1033900035F8240000F076FA641C562CF5D3D5E7F6
:1033A000940000201C1500203C3C2D43414D45520B
:1033B000412D44454255472D3E3E205B25645D73BB
:1033C000656E736F725F7265675B307825785D3A02
:1033D00025782D25780A0A002C04002010B5044613
:1033E00043F20A0000F008F8207043F20B0000F0EE
:1033F00003F8607010BD00002DE9F047804642F2EE
:10340000107635464D4C01212046FEF7FDFC4C4F11
:1034100002E06D1E681C0ED039462046FEF7AAFC5D
:103420000028F6D0002278212046FEF766FD3546BA
:10343000DFF8109105E0FF20BDE8F0876D1E681CE5
:1034400011D049462046FEF795FC0028F6D02546C7
:103450004FEA18212846FEF759FD3446DFF8E4907C
:1034600009F1020904E0FF20E6E7641E601C13D0A6
:1034700049462846FEF77EFC0028F6D02F4C14342F
:10348000208840F48060208008F0FF01A846404674
:10349000FEF73CFD354604E0FF20CDE76D1E681CBD
:1034A0000FD049464046FEF765FC0028F6D020883C
:1034B00040F48060208001214046FEF7A5FC35469F
:1034C00004E0FF20B8E76D1E681C0FD03946404667
:1034D000FEF750FC0028F6D0012278214046FEF786
:1034E0000CFD34462546164E761C04E0FF20A3E76B
:1034F0006D1E681C0CD031464046FEF73BFC002890
:10350000F6D000214046FEF729FC0D4D3F3504E082
:10351000FF2091E7641E601C0ED029464046FEF74E
:1035200029FC0028F6D001214046FEF779FC4046F0
:10353000BDE8F047FEF7DEBCFF207DE70054004009
:103540000100030082000700802143F2080000F020
:1035500099B910B508287ED2DFE800F0041E385271
:103560006C88A2BC0021FF2000F08CF900217C2097
:1035700000F088F918217D2000F084F905217C20D5
:1035800000F080F940217D2000F07CF9A621BDE803
:1035900010407D2000F076B90021FF2000F072F984
:1035A00000217C2000F06EF918217D2000F06AF9DE
:1035B00005217C2000F066F9A0217D2000F062F951
:1035C0004021BDE810407D2000F05CB90021FF20C3
:1035D00000F058F900217C2000F054F918217D20DA
:1035E00000F050F905217C2000F04CF940217D20AD
:1035F00000F048F94021BDE810407D2000F042B9BC
:103600000021FF2000F03EF900217C2000F03AF973
:1036100018217D2000F036F905217C2000F032F9D8
:1036200040217D2000F02EF9C021BDE810407D2012
:1036300000F028B90021FF2000F024F900217C20AF
:1036400000F020F918217D2000F01CF905217C20D4
:1036500000F018F900E057E080217D2000F012F919
:103660008021BDE810407D2000F00CB90021FF2032
:1036700000F008F900217C2000F004F940217D20B1
:1036800000F000F905217C2000F0FCF880217D206D
:1036900000F0F8F88021BDE810407D2000F0F2B87D
:1036A0000021FF2000F0EEF800217C2000F0EAF875
:1036B00058217D2000F0E6F805217C2000F0E2F89A
:1036C00080217D2000F0DEF88021BDE810407D20C3
:1036D00000F0D8B80021FF2000F0D4F800217C20B1
:1036E00000F0D0F800217D2000F0CCF805217C20EE
:1036F00000F0C8F880217D2000F0C4F88021BDE8EA
:1037000010407D2000F0BEB810BD000038B51E4C42
:103710002078FFF7AFFB6420FDF712FC608A009071
:10372000238AE289A189A07AFFF772FD6420FDF760
:1037300007FC94F91B00FFF778F96420FDF700FC03
:1037400094F91A00FFF794F96420FDF7F9FB94F956
:103750001C00FFF7CDF96420FDF7F2FB94F91E0081
:10376000FFF7EAF96420FDF7EBFB607EFFF714FD3D
:103770006420FDF7E5FB607FFFF7EBFEBDE8384016
:103780006420FDF7DDBB0000740000202DE9F04748
:1037900006460D4642F2107A54464FF40047DFF8D1
:1037A000D88001214046FEF72FFBDFF8D09002E0E1
:1037B000641E601C0ED049464046FEF7DBFA002826
:1037C000F6D0002278214046FEF797FB5446DFF8FA
:1037D000B09005E0FF20BDE8F087641E601C10D0AB
:1037E00049464046FEF7C6FA0028F6D04446390A54
:1037F0002046FEF78BFBD046DFF8849009F10209E2
:1038000006E0FF20E7E7B8F1010801D2FF20E2E778
:1038100049462046FEF7AEFA0028F4D0F9B2204619
:10382000FEF774FB5746A04602E07F1E781C06D0C8
:1038300049464046FEF79EFA0028F6D011E0FF20E8
:10384000C9E731784046FEF761FB761C544602E03A
:10385000641E601C0ED049464046FEF78BFA0028D5
:10386000F6D06D1EADB2ECD201214046FEF7D8FA7B
:103870000020B0E7FF20AEE7005400400100030045
:10388000820007002DE9F04706460F4642F2107805
:103890004446334D01212846FEF7B6FADFF8C490BE
:1038A00002E0641E601C0ED049462846FEF762FA0C
:1038B0000028F6D0002278212846FEF71EFB444659
:1038C000DFF8A49005E0FF20BDE8F087641E601CCF
:1038D00010D049462846FEF74DFA0028F6D02C466F
:1038E000310A2046FEF712FB4546DFF87C9009F1CD
:1038F000020904E0FF20E7E76D1E681C0BD0494673
:103900002046FEF737FA0028F6D0F1B22046FEF73F
:10391000FDFA464604E0FF20D6E7761E701C0CD068
:1039200049462046FEF726FA0028F6D025463946B5
:103930002846FEF7EBFA444604E0FF20C4E7641E85
:10394000601C0BD049462846FEF714FA0028F6D032
:1039500001212846FEF764FA0020B5E7FF20B3E70F
:10396000005400400100030082000700704700007F
:10397000054A002903D0116801431160704711689E
:10398000814311607047000030380240054A002929
:1039900003D01168014311607047116881431160C1
:1039A0007047000010380240054A002903D0116812
:1039B0000143116070471168814311607047000036
:1039C00034380240054A002903D0116801431160D0
:1039D0007047116881431160704700003838024019
:1039E000054A002903D0116801431160704711682E
:1039F000814311607047000040380240054A0029A9
:103A000003D0116801431160704711688143116050
:103A10007047000020380240054A002903D0116891
:103A200001431160704711688143116070470000C5
:103A30004438024070B5244B196801F00C01234C46
:103A400000291ED0224E04291DD008291DD0046053
:103A5000196801F0F00109091E4A545C0168E1404F
:103A600041601C6804F4E054A40A145D21FA04F4D3
:103A700084601B6803F460435B0BD25CD140C1607F
:103A800070BD0460E4E70660E2E70F4A121F1168A8
:103A9000C1F38055116801F03F0135B1B6FBF1F17A
:103AA0001468C4F38814614305E0B4FBF1F11468B1
:103AB000C4F3881461431268C2F30142521C5200DD
:103AC000B1FBF2F10160C3E7083802400024F400C2
:103AD00040787D0114000020024600205109012990
:103AE0000BD002290DD00949096802F01F020123F9
:103AF00093400B4200D00120704704497439096893
:103B0000F3E70249091F0968EFE700007438024033
:103B1000034A116821F440310143116070470000ED
:103B20008C38024001490867704700000000474296
:103B3000800140EA0160024940EA02700860704773
:103B4000883802402DE9FC5F0121FC20FFF710FFBF
:103B500002208DF804008DF8050000208DF8060085
:103B60008DF80700012000906946D648FDF7EAFF6E
:103B70000C220021D348FEF723F80220009069466A
:103B8000D048FDF7DFFF0C220121CE48FEF718F8E0
:103B9000042600966946CB48FDF7D4FF0C2202218B
:103BA000C848FEF70DF8082000906946C548FDF7A3
:103BB000C9FF0C220321C348FEF702F81027009723
:103BC0006946C048FDF7BEFF0C220421BD48FDF741
:103BD000F7FF4FF02008CDF800806946B948FDF79F
:103BE000B1FF0C220521B748FDF7EAFF4FF48059D9
:103BF000CDF800906946B348FDF7A4FF0C221146AA
:103C0000B048FDF7DDFF4FF4005ACDF800A069463B
:103C1000AC48FDF797FF0C220D21AA48FDF7D0FF15
:103C2000350300956946A748FDF78CFF0C220E214D
:103C3000A448FDF7C5FF6C0000946946A148FDF754
:103C400081FF0C220F219F48FDF7BAFF0120009051
:103C500069469D48FDF776FF0C2200219A48FDF742
:103C6000AFFF0220009069469748FDF76BFF0C22DA
:103C700001219548FDF7A4FF009669469248FDF79B
:103C800061FF0C2202219048FDF79AFF00956946DA
:103C90008E48FDF757FF0C220E218C48FDF790FF50
:103CA000009469468948FDF74DFF0C220F21874893
:103CB000FDF786FF0120009069468448FDF742FF2A
:103CC0000C2200218148FDF77BFF0220009069460D
:103CD0007E48FDF737FF0C2201217C48FDF770FF7D
:103CE0008020009069467A48FDF72CFF0C220721BE
:103CF0007748FDF765FFE611009669467448FDF7C1
:103D000021FF0C2208217248FDF75AFFA0110090F4
:103D100069466F48FDF716FF0C2209216C48FDF734
:103D20004FFF4FF4806BCDF800B069466848FDF74F
:103D300009FF0C220A216648FDF742FF201100907E
:103D400069466348FDF7FEFE0C220B216048FDF733
:103D500037FFCDF8009069465D48FDF7F3FE0C2271
:103D600011465B48FDF72CFFCDF800A06946584886
:103D7000FDF7E8FE0C220D215548FDF721FF0095C7
:103D800069465348FDF7DEFE0C220E215048FDF730
:103D900017FF009469464E48FDF7D4FE0C220F2110
:103DA0004B48FDF70DFF009669464848FDF7CAFEEF
:103DB0000C2208214548FDF703FFA0110090694639
:103DC0004248FDF7BFFE0C2209214048FDF7F8FEEE
:103DD000CDF800B069463D48FDF7B4FE0C220A213B
:103DE0003A48FDF7EDFE402000903A4D69462846DE
:103DF000FDF7A8FE0C2206212846FDF7E1FE0097FC
:103E000069463148FDF79EFE0C2204212E48FDF73D
:103E1000D7FECDF8008069462B48FDF793FE0C22B3
:103E200005212948FDF7CCFE012000902A4F694664
:103E30003846FDF787FE0C2200213846FDF7C0FE0C
:103E40002111009169461F48FDF77CFE0C220B21D1
:103E50001C48FDF7B5FE009469461B48FDF772FE4D
:103E60000C220F211848FDF7ABFE00966946164854
:103E7000FDF768FE0C2208211348FDF7A1FE802003
:103E8000009069462846FDF75DFE0C220721284672
:103E9000FDF796FE0220009069460D48FDF752FEA0
:103EA0000C2201210A48FDF78BFE01200090694693
:103EB0000748FDF747FE0C2200210548FDF780FE6C
:103EC000BDE8FC9F0014024000180240000C0240B4
:103ED00000100240001C02400008024000B593B0F0
:103EE000FFF730FE01210846FFF76CFD022001902C
:103EF00007210291042203920491059006900790F5
:103F000001200890099008200A9010200B90402072
:103F10000C904FF4C0700D9000200E9051020F9144
:103F200010908800119001A8129008A8FDF77EFD5E
:103F300000F002F813B000BD2DE9FF410125009506
:103F40000826019602950024039420210120FDF704
:103F500041FD0028F9D16846FDF758FD0A2000F020
:103F600041F802200090019602950394202101203F
:103F7000FDF730FD0028F9D16846FDF747FD032025
:103F80000090019604270297039420210120FDF759
:103F900021FD0028F9D16846FDF738FD20210120D8
:103FA000FDF718FD0028F9D16846FDF72FFD40F216
:103FB0003120009701960295039020210120FDF702
:103FC00009FD0028F9D16846FDF720FD40F2AB203D
:103FD000FDF7B0FD20210120FDF7FCFC0028F9D100
:103FE000BDE8FF8101B581B00549019848430090C3
:103FF00002E00098401E009000980028F9D10CBD06
:10400000A0860100002904D0018841F04001018010
:104010007047018821F04001018070472DE9F0418F
:1040200004460F4615460F4840260680032000F040
:1040300089F8C7F3074000F085F8C7F3072000F0C0
:1040400081F8F8B200F07EF804E0FF2000F07AF882
:1040500004F8010B6D1EADB2F7D20248801E068037
:10406000BDE8F0811A1402402DE9F04387B0012128
:104070002020FFF77DFC01210805FFF7CDFCDFF8CC
:10408000BC90052207214846FDF79AFD052208212C
:104090004846FDF795FD052209214846FDF790FDAC
:1040A000802000904FF002088DF8048000248DF8E5
:1040B000064003208DF805008DF807406946484604
:1040C000FDF740FD4FF48070009069464846FDF7CB
:1040D00039FD4FF40075009569464846FDF732FDFD
:1040E0004027009701268DF8046069464846FDF791
:1040F00029FD124818300780ADF808404FF482704F
:10410000ADF80A00ADF80C40ADF80E80ADF81060C7
:10411000ADF812500820ADF81400ADF81640072095
:10412000ADF81800064C02A9204600F04EF8012117
:104130002046FFF767FF07B0BDE8F0830014024098
:10414000005001402DE9F0410746184C4FF48055CE
:104150002560174E09E02068411E216005D200202D
:1041600000F050F8C0B2BDE8F0810221304600F006
:1041700021F80028EFD03946304600F024F82560B9
:1041800008E021684A1E226004D2012000F03AF8BB
:10419000C0B2E8E70121304600F00CF80028F0D06A
:1041A000304600F00EF8C0B2DDE7000050000020FD
:1041B000005001400246002012890A4200D001202E
:1041C0007047808970478181704730B5028802F45A
:1041D00041530A884C88CD8822438C882C43224343
:1041E0000C8922434C8922438C892243CC89224367
:1041F0001A430280828B22F400628283098A018240
:1042000030BD000010B5014602A000F075F9002095
:1042100010BD00003C3C2D464C4153482D455252A8
:104220004F522D3E3E2053504920B5C8B4FDB3AC8B
:10423000CAB1216572726F72436F6465203D20259B
:10424000640A0000704700000149086070470000E0
:10425000DC0027421CB50021019100912E4A106814
:1042600040F4803010604FF4A043106800F4003038
:1042700000900198401C0190009810B90198984254
:10428000F3D11068800302D50120009000E0009176
:10429000009801283FD120484030016841F080510A
:1042A00001601E49086840F4404008601A48083020
:1042B00003680360036843F400430360036843F446
:1042C000A0530360041F164B2360136843F08073F0
:1042D000136013689B01FCD50A6842F480320A60BF
:1042E0004A68D203FCD50A6842F400320A604A6880
:1042F0009203FCD50B4A40F205711160016821F070
:1043000003010160016841F0020101600168C1F32D
:1043100081010229FAD11CBD003802400070004022
:10432000195A4007003C024010B500F063F80849F4
:104330000868401C08600020064A52F8201011B19D
:10434000491E42F82010401CC0B20328F5D310BD0E
:1043500030000020101500200D484FF47A710068DD
:10436000B0FBF1F0401EB0F1807F01D301200AE0E4
:104370004FF0E0214861074AF0201070002088616A
:10438000072008610020002800D0FEE770470000E9
:104390000000002023ED00E010B51248016841F450
:1043A000700101601048016841F0010101600E4A8E
:1043B00000210832116002680C4B1A400260031D94
:1043C0000B4A1A60026822F48022026006480C3010
:1043D0000160FFF73FFF03494FF00060803908603C
:1043E00010BD000088ED00E000380240FFFFF6FE3F
:1043F0001030002403480168002902D00168491EDA
:104400000160704754000020002904D0818941F4E4
:10441000005181817047818921F400518181704769
:104420000246002012880A4200D001207047000096
:104430007FB504460D46208A20F44051E8880843A1
:104440002082A08941F20C618843A9882A891143FE
:104450006A8902431143A181A08A20F44071A8898E
:104460000843A0826846FFF7E5FA1E48844202D05E
:104470001D48844201D1039800E00298A1890904F3
:1044800008D500EBC00101EB001029684900B0FB22
:10449000F1F007E000EBC00101EB00102968890092
:1044A000B0FBF1F06422B0FBF2F109010B096FF0EF
:1044B00018056B4300EB8300A3891D044FF0320302
:1044C00007D503EBC000B0FBF2F000F00700084393
:1044D00006E003EB0010B0FBF2F000F00F00084321
:1044E00020817FBD0010014000140140C1F308018C
:1044F00081807047FEE700000FB4054B10B503A99B
:10450000044A029800F0DAF810BC5DF814FB0000D1
:10451000E55A00080C15002002E008C8121F08C167
:10452000002AFAD170477047002001E001C1121F34
:10453000002AFBD1704700002DE9FF5F82B0002107
:10454000DDE90430020DDDF840B0034318D044F635
:104550001050A2F2FF3242431514119801281FD0C7
:10456000A5EB0B00401C5FEA000A4FF000064E4F1F
:10457000DFF83891B046504615D5CAF1000413E073
:10458000119801244AA3012801D16FEA0B01029876
:10459000119AC0E90031C0E9024206B0BDE8F09FBF
:1045A000CBF10000DFE704460021404A491842EB06
:1045B0000450CDE9001012E0E00707D032463B4638
:1045C00040464946FCF716F88046894632463B4647
:1045D00010461946FCF70EF806460F466410002CEC
:1045E000EAD1DDE90401DDE90023BAF1000F06DAC2
:1045F000FCF700F842464B46FBF7FCFF05E0FBF7F3
:1046000032FE42464B46FBF72EFE04460E46002283
:10461000284BFCF779F803D84FF0FF30014607E04C
:104620000022254B20463146FBF73DFFFCF754F8AE
:10463000102409E0002C0ADB0A220023FBF7A5FE68
:10464000039B30321A55641E50EA0102F2D1641CF9
:10465000039AC4F111031444119A012A03D00122D0
:1046600008430DD10AE0084304D000204FF0110B9D
:10467000119072E7A3EB0B056D1E0DE05B4504DDA9
:104680004FF0000205F1010504E003DA4FF00002EB
:10469000A5F10105002AECD002981199C0E9023178
:1046A000C0E9004579E70000000014400000F03F39
:1046B000300000000000F0430000E03F2DE9FF4F14
:1046C00095B09A46884606460025EEE1252877D122
:1046D00000242746F94A0121039400E0044316F818
:1046E000013F203B01FA03F01042F7D130782A282D
:1046F00011D06FF02F033078A0F13002092A16D8BC
:10470000039A44F0020402EB820203EB42021044DB
:10471000761C0390EFE758F8042B0392002A03DA83
:10472000504244F40054039044F00204761C307864
:104730002E2816D116F8010F44F004042A280DD0B3
:104740006FF02F023078A0F13003092B09D807EB66
:10475000870302EB4303C718761CF3E758F8047B82
:10476000761C30786C280FD006DC4C2817D06828CF
:104770000DD06A2814D104E0742810D07A280FD103
:104780000DE044F400140AE044F4801401E044F421
:1047900040147278824202D104F58014761C761C93
:1047A000307866280BD013DC582877D009DC002835
:1047B00075D04528F6D04628F4D047281AD193E181
:1047C00018E0632835D0642879D0652812D18BE1B0
:1047D000702873D008DC6728F1D069286FD06E2864
:1047E0000DD06F2806D1ACE073282CD0752874D07A
:1047F000782853D05246179990476D1C54E1C4F362
:104800000250022809D003280DD0D8F8001004283F
:104810000DD00D6008F1040846E1D8F80010EA1741
:10482000C1E90052F6E7D8F800100D80F2E70D70EC
:10483000F0E718F8041B8DF8001000208DF8010037
:10484000EB46012003E058F804BB4FF0FF3061074E
:104850004FF0000102D40DE009F101018946B9428F
:104860000FDA8145F8DB1BF809100029F4D108E0C4
:1048700009F1010189468142FADB1BF80910002980
:10488000F6D103985346A0EB090721463846179AFC
:1048900000F080FA284400EB090507E044E008E155
:1048A0000DE01BF8010B524617999047B9F1010929
:1048B000F7D2534621463846179AF2E039E00A21EA
:1048C000C4F302524FF0000B0091022A06D058F8B0
:1048D000040BC117032A09D00AE023E008F10700FE
:1048E00020F00702F2E80201904605E000B2C1178D
:1048F000042A01D140B2C117002906DA0A46002174
:10490000404261EB02012D2202E0220504D52B2258
:104910008DF80420012203E0E20701D02022F7E70E
:10492000914657E00A2100E010214FF0000B009162
:104930000BE010214FF0000B44F004040827009115
:1049400003E008204FF0000B0090C4F30252022A4B
:1049500005D058F8040B0021032A08D008E008F11C
:10496000070020F00702F2E80201904603E080B25F
:10497000042A00D1C0B24FF0000922072AD53278AC
:10498000702A07D0DDF800C08CF0100C5CEA0B0C2C
:1049900005D00EE040228DF80420012208E050EA04
:1049A000010306D030238DF804308DF80520022253
:1049B0009146009B83F0080353EA0B030AD150EAA7
:1049C000010201D1620705D530228DF804204FF095
:1049D00001097F1E3278582A04D039A20C920CAA01
:1049E00002920BE03BA2F9E75B46009AFBF7CDFC95
:1049F0000C9B9B5C029A521E0292137050EA0102B9
:104A0000F2D1029804A9081A00F1200B600702D520
:104A100024F4803400E001275F4502DDA7EB0B00A2
:104A200000E0002000EB0B01009003984944401A7D
:104A30000390E00306D453462146179A039800F0EA
:104A4000A9F90544002706E001A85246C05D179960
:104A500090476D1C7F1C4F45F6DBE0030CD5534699
:104A60002146179A039800F095F9054404E0302098
:104A70005246179990476D1C0099481E00900029D6
:104A8000F5DC08E00298029952460078491C029130
:104A9000179990476D1CBBF10001ABF1010BF1DCE4
:104AA0005BE100F065F90544761C307800287FF45E
:104AB0000DAE19B02846BDE8F08F000009280100AE
:104AC0003031323334353637383961626364656684
:104AD0000000000030313233343536373839414246
:104AE0004344454600000000600700D4062708F153
:104AF000070020F00700F0E80223804603F0004C96
:104B00005FEA0C0001D097A009E0200501D596A02E
:104B100005E0E00701D095A001E0AFF24C00139052
:104B2000307823F0004365280CD006DC452809D0F6
:104B300046281DD047287FD13BE0662818D067283B
:104B40007AD136E00021112F01DB112000E0781C22
:104B5000CDE9000104A90CA8FFF7EEFCDDE90D0189
:104B60000C9A4FF0000B07F10109109200914EE0F2
:104B70004FF000400097CDE9011004A90CA8FFF701
:104B8000DBFCDDE90D020C9B0F994FF0000B914609
:104B90001093009211B9791C00EB0109B7EB0900E1
:104BA00003D4C0F1FF3B07F10109A9EB0700019015
:104BB00042E0012F00DA01270021112F01DD112031
:104BC00000E03846CDE9000104A90CA8FFF7B4FCC9
:104BD000DDE90D010C9A00914FF0000BB9461092DF
:104BE00021070FD4009A4A4503DA914601E0A9F162
:104BF0000109B9F1010F05DD109AA9F10101515C1C
:104C00003029F4D0B84202DA10F1040F03DA01219E
:104C1000CDE9011010E0002803DC8344A9EB00017A
:104C200002E0411C494500DD8946A0EB0B00401C19
:104C300001904FF000400290200705D401984845AC
:104C400002DB4FF0FF30019000208DF84B000298FE
:104C50000DF14B07B0F1004F25D002200C902B2016
:104C60000D90029800280CDA404202902D200D9001
:104C700007E00A210298FBF772FB3031029007F837
:104C8000011D0C99481E0C900029F2DC02980028A6
:104C9000EFD1791E0D980870307800F0200040F0B8
:104CA000450007F8020D11A8C01BC01D0290139803
:104CB000007800B1012000EB0901019801EBE071DF
:104CC000029801440398401A401E0390E00306D462
:104CD00053462146179A039800F05CF80544139850
:104CE000007818B15246179990476D1CE00323D500
:104CF00053462146179A039800F04CF805441BE0F0
:104D0000BBF1000F07DB0098584504DD1098179998
:104D100010F80B0001E01799302052469047019897
:104D20000BF1010B401E05F10105019004D12E206D
:104D30005246179990476D1CB9F10001A9F101097C
:104D4000DEDC05E017F8010B5246179990476D1C01
:104D50000299481E02900029F4DC53462146179A16
:104D600003989EE62D0000002B00000020000000AC
:104D70002DE9F041044600251E461746880404D458
:104D800005E039462020B0476D1C641EF9D5284641
:104D9000BDE8F0812DE9F041044600251E4690460D
:104DA000C80301D5302700E02027880404D505E09A
:104DB00041463846B0476D1C641EF9D52846BDE80B
:104DC000F081000070B504460E4615460C490D48AA
:104DD00004F092FE21460B4C201D04F089FE0021B8
:104DE000A01D04F085FE314604F1080004F084FEA5
:104DF000294604F10C00BDE8704004F07DBE0000BF
:104E00005AA55AA50418002010B54FF4F0710748B0
:104E100004F06EFE054C4FF48871A01C04F068FE8F
:104E2000012020710020607110BD00005C14002082
:104E300038B515480090154C6069002803D002F081
:104E400039FC0020606103F037F9606100281AD056
:104E5000002102F085FC02220D49606903F06EFB1F
:104E60000C49606903F0CBFF0B49606904F002F95B
:104E70000A49606902F078FE094B41F27072694696
:104E8000606902F02BFD38BDC0A8016A381400200B
:104E9000696F0008756F0008ED6F0008556F000816
:104EA0002D6F000802480079002800D001207047CB
:104EB000381400200148C0787047000038140020E2
:104EC00010B5164CE078002827D06069002824D05F
:104ED000217939B9217829B1E16819B12169B1F590
:104EE0007F3F03D0BDE8104004F030BC00202070AC
:104EF000A0682062FFF788FF22690120921D216AC5
:104F0000FFF760FF012020710548A0611020E061DB
:104F10006069BDE8104004F019BC10BD38140020D1
:104F20000418002004488178002904D10178002960
:104F300001D10121817070473814002010B504465A
:104F4000002C1DD00021204602F00AFC0021204642
:104F500004F090F80021204603F051FF0022114692
:104F6000204603F0EBFA0021204602F0FDFD20462A
:104F700002F0F8FB034900204861C8700871C8803E
:104F800010BD00003814002000280BD0426A002A0F
:104F900008D0137B082B05D10968526A914201D1D0
:104FA00000F092B8704700002DE9F04105460C462C
:104FB0001646002D0CD07CB100224FF49A71104699
:104FC00002F01AF8206150B1627B3D4952B10CE009
:104FD0006FF00D00BDE8F0816FF00500FAE74FF0CB
:104FE000FF30F7E70A68521C0A60096821604068D0
:104FF00060610121017060694170616995F82A0062
:10500000887060690027C770206801F0A3FB6169A0
:10501000486060690781606947816069C760082EE0
:1050200008D0042E06D0032E07D1207B052801D0FE
:10503000042802D161696868C860606907616069B5
:10504000476160698761002095F82A10814203D981
:10505000291891F82B1000E00021636900F11C026F
:105060009954401C80B21028EED30020626900F1F0
:105070002C015754401C80B24028F7D300206269AD
:1050800000F16C015754401C80B28028F7D361694D
:105090000C48C1F8EC0027830020626900F1F001A0
:1050A0005054401C80B24428F7D3012235212046B9
:1050B00000F0D5F83146204600F0DFF8002089E7FF
:1050C000A014002063825363F8B505466C6A0C2176
:1050D000204600F06DF9042221462846FFF764FFC0
:1050E000064630001ED104223221204600F0B7F8D7
:1050F000606A01F040FB0146204600F0C5F82046FA
:1051000000F0EEF8208BF03081B2206902F048F90F
:1051100000954323094A2169606804F08BFC20460E
:1051200000F00EF8607B401C607342F603104FF4F1
:10513000FA71B0FBF1F060833046F8BD60AD000855
:1051400010B50446002C06D0206908B102F0C5F85D
:1051500000202061606110BDF8B505466C6A002032
:1051600060620621204600F023F9012221462846EC
:10517000FFF71AFF0646300030D1022239212046BF
:1051800000F06DF8298D204600F09BF804223721AD
:10519000204600F064F80121204600F06EF803215B
:1051A000204600F06AF81C21204600F066F806212F
:1051B000204600F062F8204600F092F8208BF03094
:1051C00081B2206902F0ECF800954323114A21696D
:1051D000606804F02FFC2046FFF7B2FF607B401CA4
:1051E000C1B26173062902D20120884000E03C2050
:1051F00000EB4001C1EBC0104FF6FF7101EAC000A7
:1052000000F2F3104FF4FA71B0FBF1F06083304616
:10521000F8BD000060AD000870B505466C6A002C52
:105220001CD0217B002604290FD004DC002915D0D6
:10523000032904D109E0052907D00A2905D066739E
:105240002846BDE87040FFF787BF284601F0DAFD29
:1052500066732846BDE8704000F05AB870BD10B5BE
:10526000038B5C1C04834469F033E154018B4B1CB9
:1052700003834069F031425410BD028B531C0383F9
:105280004069F0328154704710B5028B0C0E531CEC
:1052900003834369F0329C54028B0C0C531C038330
:1052A0004369F0329C54028B0C0A531C03834369FC
:1052B000F0329C54028B531C03834069F0328154BA
:1052C00010BD10B5028B0C0A531C03834369F032E6
:1052D0009C54028B531C03834069F032815410BDEF
:1052E000002814D0018BFF234A1C02834269F0314D
:1052F0005354002304E04A1C02834269F0315354A2
:10530000018B442901D38A0701D04429F3D3704784
:10531000F8B50646746A0321204600F049F80322D6
:1053200021463046FFF740FE0546280028D10222DC
:1053300039212046FFF793FF4FF410712046FFF705
:10534000C0FF042232212046FFF789FF606A01F086
:1053500012FA01462046FFF797FF2046FFF7C0FFED
:10536000208BF03081B2206902F01AF800964323B6
:105370000E4A2169606804F05DFB2046FFF7E0FEFD
:10538000607B401CC0B260730A2803D24FF47A716C
:10539000484301E042F2107080B200F2F3104FF483
:1053A000FA71B0FBF1F060832846F8BD60AD0008EB
:1053B000027B8A4203D0017300214173418370470D
:1053C0002DE9FC47054689461746002D05D078890A
:1053D0002A2804D2384601F080FFBDE8FC877E68A9
:1053E00006F10E044FF4807A2088504508D12079C8
:1053F000062805D16079042802D16088082803D0E6
:10540000384601F06AFFE8E7D4F80E000190A06981
:105410000090291D06D0696821B1884205D14FF05E
:10542000010804E04FF0000801E04FF00008B8F177
:10543000000F01D0012300E0022304F1080201A9BA
:10544000284600F09BFAE088504503D0B0F5007F75
:105450002CD127E0B8F1000F28D0022001F086F906
:10546000E080D4F80E00A0616868C4F80E00A0685F
:10547000C4F81200A089E082A0683060A089B080E2
:10548000D9F80000A060B9F80400A081D9F80000A4
:10549000C6F80600B9F804007081AA6939462846A2
:1054A000904703E001A92846FFF76EFD384601F05A
:1054B00014FF92E770B505460024094E04EB840002
:1054C00006EB8000817C29B18068A84202D1204689
:1054D00000F084F8641CE4B20A2CEFD370BD000025
:1054E000B09500202DE9F35F05464FF00A09CA4642
:1054F0000A230020002784469B468046364900EB5D
:10550000800401EB8402917C0A2B00D149B1A1B146
:105510004DB12E68D2F804E0764504D140B2BDE822
:10552000FC9F43B209E0012913D0022905D3D17CA5
:10553000614502D34FFA80FA8C46401CC0B20A285B
:10554000DCD301984FF0FF3180071BD40A2B12D017
:1055500014E0214951F8241031B1D47C4445ECD3F6
:105560004FFA80FBA046E8E7D67CBE42E5D34FFA6F
:1055700080F93746E1E70198C00703D00A2B03DA28
:10558000DCB215E00846CAE7BAF10A0F02DA0AF0FF
:10559000FF040AE0B9F10A0F02DA09F0FF0404E09F
:1055A000BBF10A0F15DA0BF0FF04204600F016F8E5
:1055B00035B1094804EB840200EB820029684160A0
:1055C000054804EB840200EB82000021C17460B244
:1055D000A5E70846A3E70000B095002070B5084D88
:1055E00000EB8004002655F82400002803D001F0C9
:1055F00074FE45F8246005EB8400867470BD0000DD
:10560000B09500202DE9FC4104460E4615460E21BA
:10561000304601F091FE18B16FF00100BDE8FC8149
:105620002146286800F065FB08B1354B40E028684A
:10563000C0F303110E2926D0A168636800EA0102B5
:105640000B409A420BD080B2A0F57E41A93906D01A
:1056500014F10C0F34D0E06888B304F10C05294B29
:10566000294A187800EB800102EB81018F7C022F20
:1056700029D32F6849688F4225D1024631462046FA
:1056800000F044F8CAE701208DF8000000208DF8F2
:1056900001005E208DF80200687800F07F008DF830
:1056A0000300A8788DF80400E8788DF805006B46B3
:1056B00004F12B023146204600F02EF9AEE7FFE759
:1056C0006FF00300AAE7002000EB800102EB8101EC
:1056D0008F7C022F0AD32F6849688F4206D1C2B24D
:1056E0001A703146204600F011F897E7401C40B28E
:1056F0000A28E9DB32462946204600F029F88DE7E2
:10570000DCAD000808150020B095002070B50546F6
:105710000E460E4802EB820100EB8104A07C0228B9
:1057200009D1E07CE42806D3211D284600F0E2F8E8
:1057300008B90320A07404F10C0305F12B023146D3
:105740002846BDE8704000F0E7B80000B0950020A2
:105750002DE9F74F82B08B46174602982B30019007
:105760004FF0FF394C46DBF80000029900F0C1FA17
:1057700098B9DBF80000C0F303110E290DD0BBF17E
:10578000000F0AD048B101215846FFF7ABFE06468C
:10579000300005D505B0BDE8F08F6FF00D00F9E7DA
:1057A000DFF8A4A006EB86080AEB8805A87C08B9F8
:1057B0000120A874A87C012800D02FB9594602986E
:1057C00000F098F804466FB1A87C02280CD31F485B
:1057D0000670DDE9012005F10C03394600F09CF864
:1057E00004462FE02046D5E701282BD100213C4676
:1057F00005E0207B012801D0012102E02468002C73
:10580000F7D181B121890022032001F0F5FB054683
:105810006DB13946284601F0DAFC40B1284601F066
:105820005CFD002503E03D46284601F0E0FD45B162
:105830005AF8280008B101F050FD4AF82850002419
:1058400000E04C462046A5E7B09500200815002052
:105850002DE9F05F0746DDF82CB0884691469A4660
:1058600000222A21032001F0C7FB064630003ED06B
:10587000756805F10E040D9800F078FFE080DAF805
:105880000000A060BAF80400A081DBF80000C4F8B2
:105890001200BBF80400E082D9F800002860B9F8D3
:1058A0000400A880D8F80000C5F80600B8F8040085
:1058B00068810A980068C4F80E000C980068A0611E
:1058C0004FF4807020800820608006202071042022
:1058D00060714FF4C160A881BA693146384690477B
:1058E0000446304601F0F9FC2046BDE8F09F4FF039
:1058F000FF30FAE71FB50123064C021DCDE9021364
:10590000CDE9002400F12B031946A21FFFF7A0FFE9
:1059100004B010BDE2AD000830B44C681D682560CD
:105920009B88A3801368C4F806309288628108229D
:10593000A281826930BC104770B500240E4D04EB83
:10594000840005EB8000827C8AB1C17C491CC9B20D
:10595000C174F02903D2012A05D1022903D32046BC
:10596000FFF73CFE03E0032A01D102218174641C8D
:10597000E4B20A2CE3D370BDB09500202DE9F041CC
:1059800006460C4615461F46002C31D0206870B3E1
:10599000314600F0AEF950BB2078C0F303100E285A
:1059A00026D039462046FFF79DFD00281DDB124A10
:1059B00000EB800102EB81000223837486602B6878
:1059C000C360AB8803820023C37452F821405CB1EA
:1059D00042F821302B4606F12B0221463046FFF7D4
:1059E0009BFF204601F079FC0020BDE8F081FFE735
:1059F0006FF00D00F9E70000B095002070B5044687
:105A00000D4660890E283BD9606886890178CA07EF
:105A100015D0012905D006221C49FAF717FC50B110
:105A20000DE0417859B980785E2808D1607B40F05C
:105A30001000607303E0607B40F008006073082E84
:105A400003D0B6F5C16F1BD10EE095F8310080068A
:105A500016D56FF00D01204601F06EFC80B9294685
:105A6000204600F035FA09E095F83100800607D5A8
:105A7000224605F12B012846FFF7A2FC002070BD4D
:105A8000204601F02AFC002070BD0000DCAD0008BB
:105A900010B5732180F83210742180F83310044956
:105AA00041610449816100F061FD002010BD0000EA
:105AB00005560008A166000870B50546284600F0A6
:105AC0008FFD044654B12A69294620469047054671
:105AD00015B1204601F001FC284670BD4FF0FF30A3
